:10280F0044007041C80000420074000042007B0089
:01281F0000B8
:10266B00900001740CF09000007403F07B017A0071
:10267B007900E4FF12170D9000017402F090000036
:0C268B0014F0FB7A007900E4FF02170D48
:101A740012266B1228BB12290E1227E6121DC01261
:101A8400228512284412256D90007612120C12231E
:101A94001990007DEEF0A3EFF0122821E4FF3390BB
:101AA4000080CFF0A3EFF07B017A00797F1220EE63
:101AB400900076E0FCA3E0FDA3E0FEA3E0FF90002D
:101AC4007FE0900004F090007DE0FBA3E09000052F
:101AD400CBF0A3EBF090007BE0FBA3E0900007CBFE
:101AE400F0A3EBF01218D1900076E0FCA3E0FDA384
:101AF400E0FEA3E0FF90007FE0FB900004E4F0A38D
:101B0400EBF090007BE0FBA3E0900006CBF0A3EBAE
:101B1400F090007DE0FBA3E0900008CBF0A3EBF095
:101B2400122361900080E07002A3E0705390007073
:101B3400E0FCA3E0FDA3E0FEA3E0FF900076E0F864
:101B4400A3E0F9A3E0FAA3E0FB120D4740329000B2
:101B540074E07002A3E07011122229900075E00471
:101B6400F07006900074E004F0E4FFFE122939E4FA
:101B7400FFFE12294090007BE4F0A304F0021A89CE
:101B84007F017E001229397F017E00122940E490F2
:0E1B94000074F0A3F090007BF0A3F0021A8919
:0D28BB007F017E00122939E4FFFE02294052
:07293900EE4F24FF92A522DE
:07294000EE4F24FF928522F7
:10170D00EFD3940540037F0122121129FED39403D8
:10171D0040037F0222EF7041EE700B900001121119
:10172D0042F452935294121129B4010B90000112FC
:10173D0011424293F45294121129FEB4020A900000
:10174D000112114242934294EEB4030D9000011226
:10175D001142FEF45293EE4294EF64017043121164
:10176D0029FE700B900001121142F452915292EE2B
:10177D00B4010B9000011211424291F452921211D8
:10178D0029B4020A900001121142429142921211A3
:10179D0029B4030D900001121142FEF45291EE4254
:1017AD0092EF64027043121129FE700B900001122A
:1017BD001142F452955296EEB4010B9000011211A4
:1017CD00424295F45296121129B4020A9000011268
:1017DD00114242954296121129B4030D9000011247
:1017ED001142FEF45295EE4296EF640370431211CE
:1017FD0029FE700B900001121142F452B152B2EE5B
:10180D00B4010B90000112114242B1F452B2121107
:10181D0029B4020A90000112114242B142B21211D2
:10182D0029B4030D900001121142FEF452B1EE42A3
:10183D00B2EF64047043121129FE700B9000011277
:10184D001142F452B352B4EEB4010B9000011211D7
:10185D004242B3F452B4121129B4020A900001129B
:10186D00114242B342B4121129B4030D900001127A
:10187D001142FEF452B3EE42B4EF640570431211FF
:10188D0029FF700B900001121142F452C952CAEF98
:10189D00B4010B90000112114242C9F452CA121147
:1018AD0029B4020A90000112114242C942CA121112
:1018BD0029B4030D900001121142FFF452C9EF42F9
:0418CD00CA7F0022AC
:0F286400D2C7D2C012295CC2C712295CC2C022DF
:0C28E200C2C7D2C012295CD2C702295C18
:0E289100A20092C7D2C012295CC2C002295C0C
:0D28C800D2C012295CA2C7C2C012295C2236
:05269700900001EFF0CE
:10269C00E4A3F0900001E0FF25E0F092C7D2C01255
:1026AC00295CC2C012295C900002E004F0E0C394E3
:0626BC000840E00228C8FE
:1024F600E4900002F0D2C7900001F0900002E0FFE5
:1025060025E0F0D2C012295C900002E0FFA2C7E4E9
:1025160033FEEF4EF0C2C012295C900001E004F0D9
:0B252600E0C3940840D5900002E0FFE5
:012531002287
:10278800900000EFF01228647F4612269790000010
:08279800E0FF1226970228E27F
:10247A001228647F47122697E4900000F01224F68F
:10248A00900000E0FE2484F582E43400F583EFF046
:10249A00EEB40304D2008002C20012289190000018
:0F24AA00E004F0E0C3940340D41228E2022905B5
:102319007F011227887F1012278812287312247AC6
:10232900900084E0FF900082E4F0A3EFF0E0FE90DB
:102339000085E07C002400FFEC3EFE900082F0A3C3
:10234900EFF0FDAC06EC120DC57B9A7A9979997874
:072359003F120CAA120DFE59
:01236000225A
:1027B8007D9B7C03ED1D70011C144C70F7EF1F709E
:0627C800011E144E70EA30
:0127CE0022E8
:0629470000007F57DFFED7
:01294D002267
:06294E0000007F1BDFFE0C
:012954002260
:0E28730000007F087E917D63DDFEDEFCDFFA53
:012881002234
:082905007F367EC7DEFEDFFC19
:01290D0022A7
:05295C00007F0BDFFE0F
:012961002253
:0E28820000007F2E7E997DF5DDFEDEFCDFFA84
:012890002225
:0A28FA0000007F067E5DDEFEDFFCBD
:0129040022B0
:042962007FBFDFFE56
:01296600224E
:072929000000007F87DFFEC4
:012930002284
:1027E6009000017404F090000014F07B017A0079E7
:0627F600007F0102170D37
:09290E00D2921227FC1225A2222C
:1027FC00D29212294EC2927F197E001227B8D29221
:03280C0002294757
:1025A200E4FF20920AEFC3946450040F0080F3EF1B
:1025B200C3946440037F0122E4FF30920AEFC39484
:1025C2006450040F0080F3EFC3946440037F012240
:0225D2007F0088
:0125D40022E4
:10216700E490000BF0A3F0900009F020920F90008C
:102177000CE0C394325006E004F00080EEE49000D7
:102187000CF0122947E490000AF030920204F03074
:10219700920F90000CE0C394645006E004F00080B6
:1021A700EE90000BE025E0FFF090000AE04FA3F06F
:1021B700900009E004F0E0C3940840AF90000BE002
:0121C700FF18
:0121C80022F4
:0B20EE00900000EBF0A3EAF0A3E9F083
:1020F9001227FC1225A2EF7062900008F0122167E6
:10210900900008E02403F582E43400F583EFF090B1
:102119000008E004F0E0C3940540E2900004E0FF09
:10212900900003E02FFFE433FE900005E07C002FD0
:10213900FFEC3EFEA3E02FFFEC3EFEA3E0B507183F
:10214900ECB50614900003E0FF900000E0FBA3E06B
:0D215900FAA3E0F9EF12116F7F01227F0061
:012166002256
:10275000D287C2871228FAD287122962A287E4336D
:0C276000900001F01228FA900001E0FF48
:01276C00224A
:1027A000900003EFF0C28712294E900003E024FF4F
:0827B0009287122929D2872229
:10276D00C28712295CD28712295CA287E4339000BC
:0A277D0003F0122929900003E0FF89
:01278700222F
:05263B00900001EFF02A
:10264000E4A3F0900002E0FFC39408501D7401A8B9
:1026500007088002C333D8FCFF900001E05FFF123F
:0A26600027A0900002E004F080D9EA
:01266A00224D
:10253200E4900002F0900001F012276DEF601A9013
:102542000002E0FF900001E0FE7401A8060880028C
:10255200C333D8FC4F900002F0900001E004F0E099
:0A256200C3940840D4900002E0FF8B
:01256C00224C
:0D28D5001227507FCC12263B7F4402263B89
:10256D001228D51227507FCC12263B7FBE12263B58
:10257D00122532900000EFF0122532EFFE90000090
:10258D00E0FDEDFFAC06EC120DC5E4FBFA798078A9
:04259D0041120CAA31
:0125A1002217
:10282100A2B49209200908122905200902C209A2AD
:0228310009227A
:100003002743004C58000000000000000000002FB0
:10001300000000000700070000147F147F14002471
:100023002A7F2A120062640813230036495522509E
:1000330000000503000000001C22410000004122D3
:100043001C000014083E08140008083E08080000BD
:1000530000A06000000808080808000060600000B5
:10006300002010080402003E5149453E0000427F33
:100073004000004261514946002141454B3100187F
:1000830014127F10002745454539003C4A49493041
:1000930000017109050300364949493600064949FB
:1000A300291E000036360000000056360000000806
:1000B30014224100001414141414000041221408E3
:1000C30000020151090600324959513E007C1211C8
:1000D300127C007F49494936003E41414122007F5D
:1000E3004141221C007F49494941007F0909090117
:1000F300003E4149497A007F0808087F0000417F9C
:100103004100002040413F01007F08142241007F4D
:1001130040404040007F020C027F007F0408107FB4
:10012300003E4141413E007F09090906003E41511D
:10013300215E007F091929460046494949310001DA
:10014300017F0101003F4040403F001F2040201F2E
:10015300003F4038403F00631408146300070870F1
:10016300080700615149454300007F4141000055A4
:100173002A552A55000041417F0000040201020470
:10018300004040404040000001020400002054545D
:100193005478007F484444380038444444200038AD
:1001A3004444487F00385454541800087E0901021F
:1001B3000018A4A4A47C007F080404780000447DF4
:1001C3004000004080847D00007F10284400000030
:1001D300417F4000007C04180478007C0804047804
:1001E30000384444443800FC2424241800182424F0
:1001F30018FC007C080404080048545454200004EC
:100203003F444020003C4040207C001C2040201CF8
:10021300003C4030403C004428102844001CA0A06F
:10022300A07C004464544C441414141414140000AB
:1002330000000000000000000000000000000000BB
:1002430000F8000000000000003330000000001040
:100253000C06100C0600000000000000000040C067
:100263007840C0784000043F04043F040400007059
:1002730088FC08300000001820FF211E0000F00851
:10028300F000E018000000211C031E211E0000F0F6
:100293000888700000001E2123241927211010163E
:1002A3000E0000000000000000000000000000003D
:1002B30000E01804020000000007182040000002BC
:1002C3000418E00000000040201807000000404030
:1002D30080F0804040000202010F01020200000092
:1002E30000F0000000000101011F010101000000F6
:1002F30000000000000080B070000000000000005B
:1003030000000000000000010101010101010000E3
:10031300000000000000003030000000000000007A
:10032300000080601804006018060100000000E06F
:1003330010080810E000000F102020100F0000101C
:1003430010F8000000000020203F20200000007073
:10035300080808887000003028242221300000306B
:100363000888884830000018202020110E00000063
:10037300C02010F8000000070424243F240000F8E4
:100383000888880808000019212020110E0000E0C9
:10039300108888180000000F112020110E0000386B
:1003A3000808C83808000000003F00000000007083
:1003B300880808887000001C222121221C0000E00C
:1003C30010080810E0000000312222110F00000085
:1003D30000C0C0000000000000303000000000003A
:1003E30000800000000000008060000000000000AA
:1003F3008040201008000001020408102000404043
:100403004040404040000404040404040400000885
:10041300102040800000002010080402010000703A
:1004230048080808F0000000003036010000C03022
:10043300C828E810E0000718272423140B00000045
:10044300C038E0000000203C23020227382008F8CF
:10045300888888700000203F202020110E00C030C3
:10046300080808083800071820202010080008F89A
:1004730008080810E000203F202020100F0008F893
:100483008888E8081000203F20202320180008F85F
:100493008888E8081000203F200003000000C030D7
:1004A30008080838000007182020221E020008F858
:1004B30008000008F808203F210101213F2000081F
:1004C30008F8080800000020203F2020000000005A
:1004D3000808F8080800C08080807F00000008F842
:1004E30088C028180800203F20012638200008F87B
:1004F300080000000000203F20202020300008F8E2
:10050300F800F8F80800203F003F003F200008F8FB
:1005130030C00008F808203F200007183F00E01013
:1005230008080810E0000F10202020100F0008F822
:1005330008080808F000203F210101010000E01035
:1005430008080810E0000F18242438504F0008F85A
:10055300888888887000203F2000030C30200070BA
:100563008808080838000038202121221C001808B8
:1005730008F8080818000000203F2000000008F8D1
:1005830008000008F808001F202020201F0008781A
:10059300880000C83808000007380E010000F8087A
:1005A30000F80008F800033C0700073C03000818A4
:1005B30068808068180820302C03032C302008380A
:1005C300C800C83808000000203F200000001008C1
:1005D3000808C83808002038262120201800000009
:1005E30000FE020202000000007F40404000000CB9
:1005F30030C000000000000000010638C000000207
:100603000202FE000000004040407F0000000000A6
:1006130004020202040000000000000000000000C9
:1006230000000000000080808080808080800002C5
:1006330002040000000000000000000000000000B1
:100643008080808000000019242222223F2008F8A5
:10065300008080000000003F112020110E000000E8
:10066300008080800000000E112020201100000077
:1006730000808088F800000E112020103F20000029
:10068300808080800000001F22222222130000802D
:1006930080F0888888180020203F20200000000078
:1006A300808080808000006B94949493600008F8AD
:1006B300008080800000203F210000203F20008038
:1006C3009898000000000020203F20200000000038
:1006D30000809898000000C08080807F000008F8A8
:1006E300000080808000203F24022D30200000087D
:1006F30008F8000000000020203F20200000808038
:10070300808080808000203F20003F20003F808049
:10071300008080800000203F210000203F20000057
:10072300808080800000001F202020201F00808008
:1007330000808000000080FFA12020110E00000037
:10074300008080808000000E112020A0FF80808028
:1007530080008080800020203F21200001000000D5
:1007630080808080800000332424242419000080AA
:1007730080E0808000000000001F202000008080B7
:10078300000000808000001F202020103F20808078
:1007930080000080808000010E3008060100808008
:1007A3000080008080800F300C030C300F0000802D
:1007B3008000808080000020312E0E312000808058
:1007C30080000080808080818E7018060100008088
:1007D3008080808080000021302C222130000000A6
:1007E3000000807C020200000000003F4040000047
:1007F3000000FF00000000000000FF0000000002F6
:10080300027C800000000040403F00000000000622
:100813000101020204040000000000000000004087
:1008230042445840407F40405048C600000000000A
:100833000000000000000000000000000000004075
:1008430044444444444444444444FF0000000000FE
:100853000000000000000000000000000000080885
:10086300E8292E28E80808C80C0BE808080000004F
:100873000000000000000000000000000000000075
:10088300FF0949897F00000F40807F0000000000BE
:10089300000000000000000000000000000000084D
:1008A3003000FF20202020FF2020222C20000000E9
:1008B300000000000000000000000000000004042D
:1008C3000201FF8040300E01061820408000000026
:1008D3000000000000000000000000000000000411
:1008E30084844424548F142444848404000000002A
:1008F300000000000000000000000000000041397B
:1009030000003C4040424C4040700409310000006C
:100913000000000000000000000000000000404054
:10092300424458C0407F40C0504846404000000009
:1009330000000000000000000000000000008080B4
:10094300402018070000003F40404040780000006E
:10095300000000000000000000000000000000FE96
:10096300424242FE0042A29E82A2C2BE000000009A
:100973000000000000000000000000000000806F85
:10098300080828CF00002FC8080828CF000000005F
:10099300000000000000000000000000000002E270
:1009A30022223E00809E9292F292929E800000004C
:1009B30000000000000000000000000000000043F1
:1009C30082423E40474444447F444454E70000008D
:1009D3000000000000000000000000000000000014
:1009E300FC242424FC252624FC24242404000000C5
:1009F3000000000000000000000000000000403084
:100A03008F80844C55252525554C8080800000001F
:100A13000000000000000000000000000000106063
:100A2300028C0000FE9292929292FE00000000005F
:100A330000000000000000000000000000000404AB
:100A43007E01407E42427E427E42427E4000000062
:100A53000000000000000000000000000000106023
:100A6300028C00FE929292929292FE00000000008D
:100A7300000000000000000000000000000004046B
:100A83007E014448507F40407F504844400000006E
:100A93000000000000000000000000000000000251
:100AA30002C2020202FE82828282820200000000EF
:100AB30000000000000000000000000000004040B3
:100AC300407F4040407F4040404040404000000065
:100AD30000000000000000000000000000002018DB
:100AE30008EAACA8A8AFA8A8ACEA08281800000038
:100AF30000000000000000000000000000000000F3
:100B03003E02020202FF020212221E000000000047
:100B130000000000000000000000000000001010B2
:100B230010FF109000FE82828292A29E00000000BD
:100B3300000000000000000000000000000004446A
:100B4300827F010000FF80432C102C4380000000B3
:100B5300000000000000000000000000000012EA96
:100B6300AFAAEA0FFA02888C5724548C8400000041
:100B7300000000000000000000000000000002026E
:100B8300EAAAAAABAAABAAAAAAAAEA02020000008E
:0E0B9300000000000000000000000000000054
:062710007F10E4FDFCFE59
:10271600900019EEF0A3EFF0ED4C9000196006A3BF
:0C272600E0FF0228ADA3E0FF12289F2274
:0824B900900012E0FFA3E0FD1A
:1024C100900018EFF0ED24B0FFE433FEE4FDFC12C0
:1024D1002716900018E054F0C4540F7E004410FFFA
:1024E100E4FDFC122716900018E0540FFF7E00E473
:0524F100FDFC022716AE
:10228500E4900000F0900000E0FFC39408503BEF9D
:1022950024B0FFE433FEE4FDFC122716E4FDFCFF49
:1022A500FE122716122710E4900001F07D017C0034
:1022B500E4FFFE122716900001E004F0E0C39480CD
:0A22C50040EA900000E004F080BB46
:0122CF0022EC
:0B1CBC00900013EDF0900012EFF0FD1F
:101CC700E4900016F0A3F0EB24E0900016F0EDD3BB
:101CD700947F400AE4900012F0A3E02402F0900001
:101CE70015E064106003021D7D1224B9E49000170B
:101CF700F0900017E0FFC394085030900016E0758D
:101D0700F010A42FF582E435F0F583E5822431F550
:101D170082E5833402F583E493FF7E007D017C0036
:101D2700122716900017E004F080C6900012E0FF1B
:101D3700A3E004FD1224C1E4900017F0900017E01F
:101D4700FFC394085072900016E075F010A42FF5A9
:101D570082E435F0F583E5822439F582E5833402A0
:101D6700F583E493FF7E007D017C00122716900027
:101D770017E004F080C61224B9E4900017F0900031
:101D870017E0FFC394065030900016E075F006A4E4
:101D97002409F582E5F03400F583E5822FF582E426
:101DA7003583F583E493FF7E007D017C00122716BF
:081DB700900017E004F080C663
:011DBF002201
:07273200900012EFF0A90571
:102739007F017E00AD0119ED600C900012E0FD7C77
:062749000012118180EE78
:01274F002267
:0E1BA200900009EFF0A3EDF0A3EAF0A3EBF042
:101BB000E4900011F090000FF090000DE0FF900015
:101BC0000FE0FEC39F4003021CBBC3EF9E14FD7FCA
:101BD0000A12273290000BE0FCA3E0FDCFCDCFCE60
:101BE000CCCE1211937C007D0A121193900010ED5F
:101BF000F0A3E0706290000DE014FF90000FE0FE93
:101C0000C39F5053A3E0704990000EE0B40818FC45
:101C1000C31324028EF0A4FF900009E02FFFA3E07D
:101C2000FD900015EC802590000EE064106003022A
:101C30001CB2E0FEC313FFA3E0FDEF8DF0A4FF9004
:101C40000009E02FFFA3E0FD900015EEF07B20805F
:101C50005E9000117401F090000EE064087026E0C0
:101C6000FEC3132402FFA3E0FDEF8DF0A4FF90005C
:101C700009E02FFFA3E0FD900010E02430FB90006E
:101C800015EEF0802A90000EE064107025E0FEC38F
:101C900013FFA3E0FDEF8DF0A4FF900009E02FFFFC
:101CA000A3E0FD900010E02430FB900015EEF01250
:0B1CB0001CBC90000FE004F0021BB908
:011CBB002206
:1021C900900009EFF0A3EDF0A3EBF0A3EAF0A3E987
:0121D900F015
:1021DA00E490000FF090000BE0FBA3E0FAA3E0F913
:1021EA0090000FE0F582758300121142FB602F9078
:1021FA000009E0FFA3E0FD90000EE0900015F01248
:10220A001CBC900009E02408F0E0D394784007E46D
:0E221A00F0A3E02402F090000FE004F080B783
:012228002293
:0D1EA70090000BEBF0900009EFF0A3EDF0C0
:101EB400E490000DF01224C1E490000CF090000CAA
:101EC400E0FFC39410503690000BE075F040A4245A
:101ED40021F582E5F03408F583E5822FF582E435B7
:101EE40083F583E493FF7E007D017C001227169026
:101EF400000DE004F090000CE004F080C0900009B4
:101F0400E0FFA3E004FD1224C1E490000CF0900073
:101F14000CE0FFC39410503690000BE075F040A421
:101F24002441F582E5F03408F583E5822FF582E457
:101F34003583F583E493FF7E007D017C0012271630
:0E1F440090000DE004F090000CE004F080C06E
:011F5200226C
:101DC0007FAE122712E4FDFCFFFE12271612271029
:101DD000E4FDFC7F40FE122716E4FDFC7FB0FE12FE
:101DE0002716E4FDFC7F81FE122716E4FDFC7FFF31
:101DF000FE122716E4FDFC7FA1FE122716E4FDFC6F
:101E00007FA6FE122716E4FDFC7FA8FE122716E42B
:101E1000FDFC7F3FFE122716E4FDFC7FC8FE122763
:101E200016E4FDFC7FD3FE122716E4FDFCFFFE1234
:101E30002716E4FDFC7FD5FE122716E4FDFC7F800B
:101E4000FE122716E4FDFC7FD8FE122716E4FDFCE7
:101E50007F05FE122716E4FDFC7FD9FE122716E44B
:101E6000FDFC7FF1FE122716E4FDFC7FDAFE12274F
:101E700016E4FDFC7F12FE122716E4FDFC7FDBFE5C
:101E8000122716E4FDFC7F30FE122716E4FDFC7FCE
:101E90008DFE122716E4FDFC7F14FE122716E4FDCA
:071EA000FC7FAFFE022716D4
:1018D10090000012120C7B08E4FDFF121EA77B078B
:1018E100E4FD7F12121EA79000157408F07B3A7D6B
:1018F100017F24121CBC900000E0FCA3E0FDA3E0EA
:10190100FEA3E0FF120DFEAB07AA0690000D7402C4
:10191100F0A37410F0E4FD7F2A121BA2900015744D
:1019210008F07B2E7D017F3A121CBCE4FFFE7D2076
:101931007C41900000E0F8A3E0F9A3E0FAA3E0FB0A
:10194100120BA1120DFEAB07AA0690000D7401F057
:10195100A37410F0E4FD7F40121BA27BFF7A007993
:101961000390000E7410F0E4FD7F481221C97B0939
:101971007D02E4FF121EA77B077D027F12121EA7C4
:101981009000157408F07B3A7D037F24121CBC90F3
:101991000004E0FB7A0090000D7402F0A37410F0D3
:1019A1007D027F2A121BA29000157410F07B257D09
:1019B100027F3A121CBC7B047D04E4FF121EA77B4C
:1019C100057D047F12121EA77B067D047F24121E53
:1019D100A77B077D047F36121EA79000157408F0BF
:1019E1007B3A7D057F48121CBC900005E0FAA3E01C
:1019F100FB90000D7404F0A37410F07D047F4E126F
:101A01001BA27BFF7A00790690000E7410F07D0412
:101A11007F6E1221C9E4FB7D06FF121EA77B017DAB
:101A2100067F12121EA77B027D067F24121EA77B52
:101A3100037D067F36121EA79000157408F07B3ACD
:101A41007D077F48121CBC900007E07004A3E0648E
:101A510001600D7B0A7D067F4E121EA77B0B800B5A
:101A61007B0C7D067F4E121EA77B0D7D067F6012CB
:031A71001EA7228B
:101F530041540D0A0041542B434D47463D310D0A70
:101F63000041542B43534D503D31372C3136372CE0
:101F7300322C32350D0A0041542B435343533D2237
:101F830055435332220D0A0041542B434D47533DD1
:101F93002230303331303033373030333830303330
:101FA300373030333630303330303033373030330E
:101FB30038303033363030333730303336220D0A51
:101FC30000344544333545393336373039373036C5
:0E1FD300423730374539383834384236360018
:10283300E4F5AF8F9BE59A30E1FB539AFD75AF0149
:012843002272
:1025D500900000EBF0A3EAF0A3E9F0900000E0FB27
:1025E500A3E0FAA3E0F91211296017900000A3E413
:1025F50075F0011211E8A9F0FA121129FF1228331A
:0326050080D92257
:10284400759A50438E0475D7C775D6FE438E1022F1
:102229007BFF7A1F79531225D51228827BFF7A1FEB
:1022390079581225D51228827BFF7A1F79641225D5
:10224900D51228827BFF7A1F797A1225D512288226
:102259007BFF7A1F798B1225D51228827BFF7A1F83
:1022690079C41225D51228827F1A1228331228829E
:0C22790012288212288212288202288279
:10206D0041542B494F544346473D31303734353475
:10207D00383332352C3539383134382C3132330D43
:10208D000A0041542B494F5453454E443D312C7455
:10209D00656D702C252E31660D0A0041542B494F6C
:1020AD005453454E443D312C68756D692C25640D96
:1020BD000A0041542B494F5453454E443D312C7326
:1020CD006D6F6B652C25640D0A0041542B494F54DF
:1020DD0053454E443D312C6265616D2C25640D0ACE
:0120ED0000F2
:082931008F993099FDC2992233
:10260800900040EBF0A3EAF0A3E9F0900040E0FB73
:10261800A3E0FAA3E0F91211296017900040A3E49F
:1026280075F0011211E8A9F0FA121129FF122931E7
:0326380080D92224
:1027CF00759850438E40538EFE53890F758BE67567
:0727DF008DFFC2ABD28E2278
:0C28EE007BFF7A20796D122608022882F8
:092917001227CF1228EED2AC22E7
:0622D00090000A12120C3E
:1022D6007E007F327D007B017A00790E12125E90BD
:1022E600004374FFF0A37420F0A3748FF090000AEB
:1022F600E0FCA3E0FDA3E0FEA3E0FF90004612127F
:102306000C7B017A00790E1212EF7B017A00790EAE
:0323160002260894
:0823A80090000AEEF0A3EFF033
:1023B0007E007F327D007B017A00790C12125E90E4
:1023C000004374FFF0A37420F0A374A8F090000AF7
:1023D000E0FFA3E0900046CFF0A3EFF07B017A008E
:0E23E000790C1212EF7B017A00790C022608AC
:0823EE0090000AEEF0A3EFF0ED
:1023F6007E007F327D007B017A00790C12125E909E
:10240600004374FFF0A37420F0A374BFF090000A99
:10241600E0FFA3E0900046CFF0A3EFF07B017A0047
:0E242600790C1212EF7B017A00790C02260865
:0824340090000AEEF0A3EFF0A6
:10243C007E007F327D007B017A00790C12125E9057
:10244C00004374FFF0A37420F0A374D7F090000A3B
:10245C00E0FFA3E0900046CFF0A3EFF07B017A0001
:0E246C00790C1212EF7B017A00790C0226081F
:1023610090000012120C122917900000E0FCA3E06B
:10237100FDA3E0FEA3E0FF1222D012287390000417
:10238100E0FEA3E0FF1223A8122873900006E0FEEE
:10239100A3E0FF1223EE122873900008E0FEA3E0F1
:0723A100FF1224340228732F
:09292000D2A0D2A1C2A1C2A022E2
:07295500D2A0C2A1D2A12211
:0B2854001226C912285FAF041226C92B
:05285F00D2A0C2A0227E
:0726C200AC071229207F780C
:1026C900C2A0E4FEAD07ED5480B48004D2A180021B
:0F26D900C2A1EF25E0FFD2A0C2A00EEEB408E52B
:0126E80022CF
:0E289F001226C212285FE4FF122854022955A7
:0E28AD001226C212285F7F40122854022955BD
:100BA100EC4D6011E8497017ED33EC3304600DE44E
:100BB100FCFFFEFD22E933E8330470F8020E6A12ED
:100BC1000E3558046009E4CC2481500628500902EE
:100BD1000E74284003020E71C0E0EB4A7044B980E4
:100BE10006D0E0FB020E60EF4E701CBD8008EBFFEB
:100BF100EAFEE9FD80EBE98DF0A4FEE5F0020C8A46
:100C0100E9CDF9EAFEEBFFEF89F0A4FCE5F0CE892E
:100C1100F0A42EFFE435F0CD89F0A42DFEE435F0EB
:100C21008067EF4E7005BD80D780C3EF8BF0A4AC19
:100C3100F0EE8BF0A42CFCE435F0F8EF8AF0A42C54
:100C4100E5F038FCE433CB8DF0A42CFCE5F03BF867
:100C5100EE8AF0A42CFCE5F038F8E433CF89F0A457
:100C61002CFCE5F038CF3400CE89F0A42FFFE5F05D
:100C71003EFEE433C98DF0A42EFEE5F039CD8AF0B5
:100C8100A42FFFE5F03EFEE43DFD33D0E0FB50072D
:100C91000BBB000F020E74EC2CFCEF33FFEE33FEA6
:060CA100ED33FD020E4CD4
:100CA700020E74EC5D046005E859047003020E6AD5
:100CB700120E35580460F6EC4860F2EC7004FDFE45
:100CC700FF22C860DB2481C85009C3986002500620
:100CD700020E719850CAF582E9294B4A7005AB821A
:100CE700020E6075F0007C1A7880C3EF9BEE9AEDD8
:100CF70099400DC3EF9BFFEE9AFEED99FDE842F098
:100D0700DC23ACF0D0E0FFD0E0FED0E0FDAB8220EA
:100D1700E7101BEB60BAEC2CFCEF33FFEE33FEED74
:100D270033FD020E4CE803F830E705C0F075F0001C
:100D3700EF2FFFEE33FEED33FD40B830E7C280AA58
:100D470074F8CC6480CCC86480C8F58204604FC353
:100D5700EB9FF5F0EA9E42F0E99D42F0E89C45F0F2
:100D6700603C501DE5825FFFE582D313CB5BCBF47C
:100D77002B5582FB50280ABA002409B900200880A5
:100D87001DE5825BFBE582D313CF5FCFF4C3132F3F
:100D97005582FF50090EBE00050DBD00010CC3EBC7
:100DA7009FF5F0EA9E42F0E99D42F0E89C45F0602D
:090DB70007CC4820E701B3EC224F
:100DC00075F020800E75F010800575F0087D007EAE
:100DD000007F003392D530D5031211FEEC33401062
:100DE000EF33FFEE33FEED33FDEC33FCD5F0ED22B7
:0E0DF000E5F0247EA2D513CC92E7CDCEFF22F3
:100DFE00EDD2E7CD33EC3392D524814006E4FFFEED
:100E0E00FDFC22FCE4CFCECDCC24E0501174FF804B
:100E1E00EDC3CC13CCCD13CDCE13CECF13CF0470E8
:070E2E00F030D5DE0211FED9
:10128A00E5082443F582E43400F583E0050822905A
:10129A000040300703900043E475F001121218026F
:1012AA0011292000E97F2ED2008018EF540F2490D4
:1012BA00D43440D4FF30040BEF24BFB41A005003D7
:1012CA002461FFE50960021509050CE50C700205A9
:1012DA000B30070E900040E475F001121218EF026D
:1012EA00116F0226E97403D2078003E4C207F508E6
:1012FA0090004012122FE4F509F50BF50CE5096090
:10130A00077F201212CD80F5750AFFC201C200C202
:10131A0002C203C205C206C208121299FF700D303A
:10132A0007057F001212DEAF0CAE0B22B4255FC296
:10133A00D5C204121299FF24D0B40A00501A75F0CB
:10134A000A780930D50508B6FF0106C6A426F62094
:10135A00D5047002D20380D924CFB41A00EF500406
:10136A00C2E5D2040215D0D20180C6D20080C0D212
:10137A000280BCD2D580BAD20580B47F201212CDA9
:10138A002002077401B5090040F112128AFF1212F5
:10139A00CD021307D208D206809512128AFB1212C6
:1013AA008AFA12128AF94A4B700679CE7A167BFFAC
:1013BA0020022EE509602A7E008E827583001211B2
:1013CA004260060EEE650A70F0C2D5EBC0E0EAC0D4
:1013DA00E0E9C0E0EE121631D0E0F9D0E0FAD0E050
:1013EA00FB121129FF60AAEBC0E0EAC0E0E9C0E005
:1013FA001212CDD0E02401F9D0E03400FAD0E0FB9B
:10140A00E50A0460DCD50AD98087D20280A21216C6
:10141A001360F7E50A700104120E7FA90A600DE550
:10142A000A600914F50A1216BBEF60F3EA30E70204
:10143A00F404C3995079EAF4250A0430E701E40474
:10144A00F50A800D12161360C1EA050A250A120E62
:10145A007FEA90006FF030E701E4250A04D50A0418
:10146A0020050114121631E4C0E01216BB90006F79
:10147A00E0601320E70714F01212B5802204F0D0BE
:10148A00E014C0E07F001212B5E50A60071212AC40
:10149A00150A800B3005031212ACD0E0021307D0F4
:1014AA00E00480C4121613609EE50A04120E7F90AF
:1014BA00006FEAF0E50A200502600104240412160E
:0114CA0031F0
:1014CB0074FF04C0E01216BB1212B5E50A20050228
:1014DB0060031212ACD0E0B50AE87F451212BF9040
:1014EB00006FE07F2B30E7047F2DF404C0E0121275
:1014FB00CDD0E075F00A84C0F01212B6D0E0121213
:10150B00B6021307791080027908C206C208800858
:10151B00D2D5790A8004790AC2D5E50A047002F59E
:10152B000AE4FAFDFEFF12128AFC7B08200113125B
:10153B00128AFD7B1030000A12128AFE12128AFFE9
:10154B007B20EC3382D592D55013C3E43000069F39
:10155B00FFE49EFEE42001039DFDE49CFCE4CBF83C
:10156B00C201EC700CCFCECDCCE824F8F870F38030
:10157B0017C3EF33FFEE33FEED33FDEC33FCEB33F0
:10158B00FB994002FB0FD8E9EB300105F8D0E0C422
:10159B0048B201C0E00AEC4D4E4F78207B0070C280
:1015AB00EAB50A0040BCC0E0121633D0F0D0E02000
:1015BB000104C4C0E0C4B201C0F01212B6D0F0D521
:1015CB00F0EB02130712123813A453150F581375AF
:1015DB004C13714215134F151B44151B49138A43AA
:1015EB00152155144E4614AE4514184716EE5013DC
:1015FB00792D137D2E13A02B138123139E2016D729
:10160B002A13394800001398E50AB4FF03750A063C
:10161B0012128AFC12128AFD12128AFE12128AFF11
:10162B00900068020EBC790AA2D52003143005097C
:10163B00B910020404B9080104A2D5200602500116
:10164B00042002689202B509005034C0E07F2030BC
:10165B0003197F30A20272067205500F12168AC24E
:10166B0002C206C205C2087F30800F300503E9C0F5
:10167B00E01212CD300503D0E0F9D0E0B509CC3043
:10168B0005177F30B9100C1212CD7F583004077F2D
:10169B00788003B908031212CD3002057F2D021298
:1016AB00CD7F202008F87F2B2006F322920280CFDB
:1016BB007F00B40700500B2468F582E43400F583F7
:1016CB00E0FF22286E756C6C2900D20112128A3051
:1016DB0001F8C201780930D50108F60213392D50F3
:1016EB0043495812128A2403B405004001E49016B2
:1016FB00E9931212BE743A1212BED2037509040298
:02170B00150FB8
:100E3500E9D2E7C933E833F892D5EDD2E7CD33EC03
:070E450033FC5002B2D5227C
:100E4C00EC30E7100FBF000C0EBE00080DBD000407
:100E5C000BEB6014A2D5EB13FCED92E7FD2274FFB3
:100E6C00FCFDFEFF22E480F8A2D574FF13FC7D800C
:030E7C00E480EF20
:100E7F00F920E73624F950037907E4F42402FBE55F
:100E8F0082158270021583DBF6E024FB501BE960AC
:100E9F0014E4F0E582158270021583E004F0B40AC1
:0D0EAF0008E4F0D9EE7401F00A22C2D52249
:100EBC00ED33EC3392D5FA602AB4FF33EDC2E77B05
:100ECC00FF60067A0E79E1E4227A0E79EA20D504E5
:100EDC007A0E79E5224E614E002B494E46002D4983
:100EEC004E4600E47A08F0A3DAFC7B00740722C0BB
:100EFC0083C082ECC0E0EDC0E0EEC0E0EFC0E0EA01
:100F0C0075F010A4CAABF075F04DA42BFBE435F0D2
:100F1C00FCEA2410FAEB34C5FBEC34D9FCEDC2E747
:100F2C00FF75F056A4F42411C5F0F434C58FF0A469
:100F3C002AE5F03BE43CF020E7141210E9D0E0FF86
:100F4C00D0E0FED0E0FDD0E0FC120CAA8014F4043A
:100F5C001210E9D0E0FFD0E0FED0E0FDD0E0FC12B2
:100F6C000BA1D082D083E0FAEDD2E7CD33EC332461
:100F7C0082FBE4C3CF33CFCE33CECD33CD33DBF3D3
:100F8C007B0775F00A846004F0A31B0AE5F0F0A35C
:100F9C008FF0740AA4FFACF08EF0740AA42CFEAC93
:100FAC00F050010C8DF0740AA42CFDE435F0F0A384
:050FBC00DBDE740722DA
:100FC100020E6AE86480F8E933E83360110460F0E6
:100FD100ED33EC337009E8FCE9FDEAFEEBFF220496
:100FE10060DED3EB9FEA9EE99DE8C2E78CF0C2F791
:100FF10095F0400CE8CCF8E9CDF9EACEFAEBCFFB5D
:10100100120E3585D0F05804700320D5B3E8047072
:10101100075002B2D5020E7492D5EC0460F7E4CC0D
:10102100C0E0C398F8603B94186008400DD0E0FB25
:10103100020E4CE4FBFAC9FC8028E830E406E4C95E
:10104100FBE4CAFCE830E305E4C9CACBFCE8540779
:101051006010F8C3E913F9EA13FAEB13FBEC13FC84
:10106100D8F130F52FC3E49CFCEF9BFFEE9AFEED27
:1010710099FDD0E0FBEF4E4D4C701222DB03020EC6
:1010810071EC2CFCEF33FFEE33FEED33FDED30E779
:10109100EB020E4CEF2BFFEE3AFEED39FDD0E0FBFB
:1010A10050130BBB0003020E74ED13FDEE13FEEFA4
:0810B10013FFEC13FC020E4CCE
:1010B9003F8000004120000042C80000447A00003F
:1010C900461C400047C35000497424004B189680C1
:1010D9004CBEBC205A0E1BCA6753C21C749DC5AEB8
:1010E900FB60065407601C2323121117EB54386068
:1010F90009121103121112120BA1ECF8EDF9EEFA13
:10110900EFCB22EB12111280F1543803241C9010FA
:10111900B9FE93FC0EEE93FD0EEE930ECE93FF22D5
:03000000021FE1FB
:0C1FE100787FE4F6D8FD758121022028ED
:10112900BB010689828A83E0225002E722BBFE02C4
:09113900E32289828A83E49322F7
:10114200BB010CE58229F582E5833AF583E0225062
:1011520006E92582F8E622BBFE06E92582F8E222AC
:0D116200E58229F582E5833AF583E49322C6
:10116F00BB010689828A83F0225002F722BBFE015F
:02117F00F32259
:10118100EF8DF0A4A8F0CF8CF0A428CE8DF0A42E82
:02119100FE223C
:10119300BC000BBE0029EF8DF084FFADF022E4CC40
:1011A300F875F008EF2FFFEE33FEEC33FCEE9DEC09
:1011B300984005FCEE9DFE0FD5F0E9E4CEFD22ED4F
:1011C300F8F5F0EE8420D21CFEADF075F008EF2F99
:1011D300FFED33FD4007985006D5F0F222C398FD8A
:0511E3000FD5F0EA2227
:1011E800A3F8E0C5F025F0F0E582158270021583BA
:0611F800E0C838F0E82217
:0E11FE00C3E49FFFE49EFEE49DFDE49CFC2202
:0C120C00ECF0A3EDF0A3EEF0A3EFF02255
:10121800F8E0FBA3A3E0F925F0F0E582158270025F
:071228001583E0FA38F02203
:09122F00EBF0A3EAF0A3E9F022C0
:10123800D083D082F8E4937012740193700DA3A345
:1012480093F8740193F5828883E473740293686059
:06125800EFA3A3A380DF59
:1026E900EFB40A07740D1226F4740A309811A899E8
:1026F900B8130CC2983098FDA899C298B811F63051
:0727090099FDC299F5992228
:10125E00EF4E6012EF60010EEDBB010B89828A83A7
:10126E00F0A3DFFCDEFA2289F05007F709DFFCA9B4
:0C127E00F022BBFEFCF309DFFCA9F0220B
:101FED00021A74E493A3F8E493A34003F68001F27C
:101FFD0008DFF48029E493A3F85407240CC8C333F5
:10200D00C4540F4420C8834004F456800146F6DFC3
:10201D00E4800B010204081020408090280FE47E1C
:10202D00019360BCA3FF543F30E509541FFEE493B8
:10203D00A360010ECF54C025E060A840B8E493A37F
:10204D00FAE493A3F8E493A3C8C582C8CAC583CAAA
:10205D00F0A3C8C582C8CAC583CADFE9DEE780BE62
:0128200000B7
:00000001FF
